{
  "contractName": "Game",
  "abi": [
    {
      "inputs": [
        {
          "internalType": "address",
          "name": "tokenAddress",
          "type": "address"
        }
      ],
      "stateMutability": "payable",
      "type": "constructor",
      "payable": true
    },
    {
      "anonymous": false,
      "inputs": [
        {
          "indexed": false,
          "internalType": "address",
          "name": "playerA",
          "type": "address"
        },
        {
          "indexed": false,
          "internalType": "address",
          "name": "playerB",
          "type": "address"
        },
        {
          "indexed": false,
          "internalType": "uint256",
          "name": "bet",
          "type": "uint256"
        },
        {
          "indexed": false,
          "internalType": "string",
          "name": "reason",
          "type": "string"
        }
      ],
      "name": "BetsConfiscated",
      "type": "event"
    },
    {
      "anonymous": false,
      "inputs": [
        {
          "indexed": false,
          "internalType": "address",
          "name": "player",
          "type": "address"
        },
        {
          "indexed": false,
          "internalType": "uint256",
          "name": "bet",
          "type": "uint256"
        }
      ],
      "name": "BetsRefunded",
      "type": "event"
    },
    {
      "anonymous": false,
      "inputs": [
        {
          "indexed": true,
          "internalType": "address",
          "name": "playerA",
          "type": "address"
        },
        {
          "indexed": false,
          "internalType": "uint256",
          "name": "bet",
          "type": "uint256"
        }
      ],
      "name": "GameCreated",
      "type": "event"
    },
    {
      "anonymous": false,
      "inputs": [
        {
          "indexed": true,
          "internalType": "address",
          "name": "playerB",
          "type": "address"
        }
      ],
      "name": "GameJoined",
      "type": "event"
    },
    {
      "anonymous": false,
      "inputs": [
        {
          "indexed": true,
          "internalType": "address",
          "name": "winner",
          "type": "address"
        },
        {
          "indexed": false,
          "internalType": "uint128",
          "name": "dice",
          "type": "uint128"
        }
      ],
      "name": "GameResult",
      "type": "event"
    },
    {
      "anonymous": false,
      "inputs": [
        {
          "indexed": true,
          "internalType": "address",
          "name": "winner",
          "type": "address"
        },
        {
          "indexed": false,
          "internalType": "uint256",
          "name": "prize",
          "type": "uint256"
        }
      ],
      "name": "GameSettled",
      "type": "event"
    },
    {
      "anonymous": false,
      "inputs": [
        {
          "indexed": true,
          "internalType": "address",
          "name": "player",
          "type": "address"
        }
      ],
      "name": "SecretRevealed",
      "type": "event"
    },
    {
      "inputs": [],
      "name": "bonusFrequency",
      "outputs": [
        {
          "internalType": "uint256",
          "name": "",
          "type": "uint256"
        }
      ],
      "stateMutability": "view",
      "type": "function",
      "constant": true
    },
    {
      "inputs": [],
      "name": "bonusPercentage",
      "outputs": [
        {
          "internalType": "uint256",
          "name": "",
          "type": "uint256"
        }
      ],
      "stateMutability": "view",
      "type": "function",
      "constant": true
    },
    {
      "inputs": [],
      "name": "game",
      "outputs": [
        {
          "internalType": "address payable",
          "name": "PlayerA",
          "type": "address"
        },
        {
          "internalType": "address payable",
          "name": "PlayerB",
          "type": "address"
        },
        {
          "internalType": "uint256",
          "name": "BetInEther",
          "type": "uint256"
        },
        {
          "internalType": "uint256",
          "name": "StakeInToken",
          "type": "uint256"
        },
        {
          "internalType": "bytes32",
          "name": "HashOfSecretA",
          "type": "bytes32"
        },
        {
          "internalType": "bytes32",
          "name": "HashOfSecretB",
          "type": "bytes32"
        },
        {
          "internalType": "uint256",
          "name": "SecretA",
          "type": "uint256"
        },
        {
          "internalType": "uint256",
          "name": "SecretB",
          "type": "uint256"
        },
        {
          "internalType": "bool",
          "name": "RevealedA",
          "type": "bool"
        },
        {
          "internalType": "bool",
          "name": "RevealedB",
          "type": "bool"
        },
        {
          "internalType": "uint256",
          "name": "Deadline",
          "type": "uint256"
        },
        {
          "internalType": "enum Game.GameState",
          "name": "State",
          "type": "uint8"
        }
      ],
      "stateMutability": "view",
      "type": "function",
      "constant": true
    },
    {
      "inputs": [],
      "name": "joinTimeout",
      "outputs": [
        {
          "internalType": "uint256",
          "name": "",
          "type": "uint256"
        }
      ],
      "stateMutability": "view",
      "type": "function",
      "constant": true
    },
    {
      "inputs": [],
      "name": "maxBet",
      "outputs": [
        {
          "internalType": "uint256",
          "name": "",
          "type": "uint256"
        }
      ],
      "stateMutability": "view",
      "type": "function",
      "constant": true
    },
    {
      "inputs": [],
      "name": "minBet",
      "outputs": [
        {
          "internalType": "uint256",
          "name": "",
          "type": "uint256"
        }
      ],
      "stateMutability": "view",
      "type": "function",
      "constant": true
    },
    {
      "inputs": [],
      "name": "revealTimeout",
      "outputs": [
        {
          "internalType": "uint256",
          "name": "",
          "type": "uint256"
        }
      ],
      "stateMutability": "view",
      "type": "function",
      "constant": true
    },
    {
      "inputs": [],
      "name": "token",
      "outputs": [
        {
          "internalType": "contract TokenInterface",
          "name": "",
          "type": "address"
        }
      ],
      "stateMutability": "view",
      "type": "function",
      "constant": true
    },
    {
      "inputs": [],
      "name": "transactionFee",
      "outputs": [
        {
          "internalType": "uint256",
          "name": "",
          "type": "uint256"
        }
      ],
      "stateMutability": "view",
      "type": "function",
      "constant": true
    },
    {
      "inputs": [
        {
          "internalType": "bytes32",
          "name": "hashCommit",
          "type": "bytes32"
        }
      ],
      "name": "createGame",
      "outputs": [],
      "stateMutability": "payable",
      "type": "function",
      "payable": true
    },
    {
      "inputs": [
        {
          "internalType": "bytes32",
          "name": "hashCommit",
          "type": "bytes32"
        }
      ],
      "name": "joinGame",
      "outputs": [],
      "stateMutability": "payable",
      "type": "function",
      "payable": true
    },
    {
      "inputs": [
        {
          "internalType": "uint256",
          "name": "secret",
          "type": "uint256"
        }
      ],
      "name": "revealSecret",
      "outputs": [],
      "stateMutability": "nonpayable",
      "type": "function"
    },
    {
      "inputs": [],
      "name": "claimTimeout",
      "outputs": [],
      "stateMutability": "nonpayable",
      "type": "function"
    }
  ],
  "bytecode": "0x608060405260405162002d1038038062002d108339818101604052810190620000299190620001d1565b805f806101000a81548173ffffffffffffffffffffffffffffffffffffffff021916908373ffffffffffffffffffffffffffffffffffffffff160217905550670de0b6b3a76400003411620000b5576040517f08c379a0000000000000000000000000000000000000000000000000000000008152600401620000ac9062000285565b60405180910390fd5b5f8173ffffffffffffffffffffffffffffffffffffffff1634604051620000dc90620002d6565b5f6040518083038185875af1925050503d805f811462000118576040519150601f19603f3d011682016040523d82523d5f602084013e6200011d565b606091505b505090508062000164576040517f08c379a00000000000000000000000000000000000000000000000000000000081526004016200015b906200033a565b60405180910390fd5b50506200035a565b5f80fd5b5f73ffffffffffffffffffffffffffffffffffffffff82169050919050565b5f6200019b8262000170565b9050919050565b620001ad816200018f565b8114620001b8575f80fd5b50565b5f81519050620001cb81620001a2565b92915050565b5f60208284031215620001e957620001e86200016c565b5b5f620001f884828501620001bb565b91505092915050565b5f82825260208201905092915050565b7f4d7573742050726566756e6420746f204f627461696e2053756666696369656e5f8201527f7420546f6b656e73000000000000000000000000000000000000000000000000602082015250565b5f6200026d60288362000201565b91506200027a8262000211565b604082019050919050565b5f6020820190508181035f8301526200029e816200025f565b9050919050565b5f81905092915050565b50565b5f620002bf5f83620002a5565b9150620002cc82620002af565b5f82019050919050565b5f620002e282620002b2565b9150819050919050565b7f546f6b656e2050726566756e64696e67204661696c65640000000000000000005f82015250565b5f6200032260178362000201565b91506200032f82620002ec565b602082019050919050565b5f6020820190508181035f830152620003538162000314565b9050919050565b6129a880620003685f395ff3fe6080604052600436106100c1575f3560e01c8063813d6c9a1161007e5780639ed3edf0116100585780639ed3edf01461021b578063bf47476614610245578063c3fe3e2814610261578063fc0c546a14610296576100c1565b8063813d6c9a1461019f5780639619367d146101c957806398df67c6146101f3576100c1565b80630e1da6c3146100c5578063247ddbdf146100db5780632e5b2168146101055780634376cb341461012f578063457391e5146101595780634ea8525514610175575b5f80fd5b3480156100d0575f80fd5b506100d96102c0565b005b3480156100e6575f80fd5b506100ef610660565b6040516100fc9190611a15565b60405180910390f35b348015610110575f80fd5b50610119610665565b6040516101269190611a15565b60405180910390f35b34801561013a575f80fd5b50610143610670565b6040516101509190611a15565b60405180910390f35b610173600480360381019061016e9190611a65565b610675565b005b348015610180575f80fd5b50610189610c1b565b6040516101969190611a15565b60405180910390f35b3480156101aa575f80fd5b506101b3610c20565b6040516101c09190611a15565b60405180910390f35b3480156101d4575f80fd5b506101dd610c26565b6040516101ea9190611a15565b60405180910390f35b3480156101fe575f80fd5b5061021960048036038101906102149190611aba565b610c30565b005b348015610226575f80fd5b5061022f61103d565b60405161023c9190611a15565b60405180910390f35b61025f600480360381019061025a9190611a65565b611042565b005b34801561026c575f80fd5b506102756113ad565b60405161028d9c9b9a99989796959493929190611bc0565b60405180910390f35b3480156102a1575f80fd5b506102aa61145d565b6040516102b79190611cd3565b60405180910390f35b600c5f9054906101000a900460ff161561030f576040517f08c379a000000000000000000000000000000000000000000000000000000000815260040161030690611d46565b60405180910390fd5b6001600c5f6101000a81548160ff0219169083151502179055506001600901544211610370576040517f08c379a000000000000000000000000000000000000000000000000000000000815260040161036790611dae565b60405180910390fd5b6001600381111561038457610383611b4d565b5b6001600a015f9054906101000a900460ff1660038111156103a8576103a7611b4d565b5b0361046f5760015f015f9054906101000a900473ffffffffffffffffffffffffffffffffffffffff1673ffffffffffffffffffffffffffffffffffffffff163373ffffffffffffffffffffffffffffffffffffffff161461043e576040517f08c379a000000000000000000000000000000000000000000000000000000000815260040161043590611e16565b60405180910390fd5b61046a60015f015f9054906101000a900473ffffffffffffffffffffffffffffffffffffffff16611480565b610645565b6002600381111561048357610482611b4d565b5b6001600a015f9054906101000a900460ff1660038111156104a7576104a6611b4d565b5b036106095760016008015f9054906101000a900460ff1680156104da5750600160080160019054906101000a900460ff16155b156105105761050b60015f015f9054906101000a900473ffffffffffffffffffffffffffffffffffffffff166115b1565b610604565b60016008015f9054906101000a900460ff1615801561053e5750600160080160019054906101000a900460ff165b156105745761056f600180015f9054906101000a900473ffffffffffffffffffffffffffffffffffffffff166115b1565b610603565b7f38f41ffbc8bbbc7bc3b0902c874726e1f01d0b07d3c6669c71a2f5268c6117ba60015f015f9054906101000a900473ffffffffffffffffffffffffffffffffffffffff16600180015f9054906101000a900473ffffffffffffffffffffffffffffffffffffffff166001600201546040516105f293929190611ec4565b60405180910390a1610602611816565b5b5b610644565b6040517f08c379a000000000000000000000000000000000000000000000000000000000815260040161063b90611f56565b60405180910390fd5b5b5f600c5f6101000a81548160ff021916908315150217905550565b603c81565b662386f26fc1000081565b603c81565b600c5f9054906101000a900460ff16156106c4576040517f08c379a00000000000000000000000000000000000000000000000000000000081526004016106bb90611d46565b60405180910390fd5b6001600c5f6101000a81548160ff0219169083151502179055505f3490505f60038111156106f5576106f4611b4d565b5b6001600a015f9054906101000a900460ff16600381111561071957610718611b4d565b5b14610759576040517f08c379a000000000000000000000000000000000000000000000000000000000815260040161075090611fbe565b60405180910390fd5b655af3107a400081101580156107765750662386f26fc100008111155b6107b5576040517f08c379a00000000000000000000000000000000000000000000000000000000081526004016107ac9061204c565b60405180910390fd5b5f805f9054906101000a900473ffffffffffffffffffffffffffffffffffffffff1673ffffffffffffffffffffffffffffffffffffffff166370a08231306040518263ffffffff1660e01b815260040161080f919061208a565b602060405180830381865afa15801561082a573d5f803e3d5ffd5b505050506040513d601f19601f8201168201806040525081019061084e91906120b7565b90505f805f9054906101000a900473ffffffffffffffffffffffffffffffffffffffff1673ffffffffffffffffffffffffffffffffffffffff16836040516108959061210f565b5f6040518083038185875af1925050503d805f81146108cf576040519150601f19603f3d011682016040523d82523d5f602084013e6108d4565b606091505b5050905080610918576040517f08c379a000000000000000000000000000000000000000000000000000000000815260040161090f90612193565b60405180910390fd5b5f805f9054906101000a900473ffffffffffffffffffffffffffffffffffffffff1673ffffffffffffffffffffffffffffffffffffffff166370a08231306040518263ffffffff1660e01b8152600401610972919061208a565b602060405180830381865afa15801561098d573d5f803e3d5ffd5b505050506040513d601f19601f820116820180604052508101906109b191906120b7565b90505f83826109c091906121de565b90506040518061018001604052803373ffffffffffffffffffffffffffffffffffffffff1681526020015f73ffffffffffffffffffffffffffffffffffffffff1681526020018681526020018281526020018781526020015f801b81526020015f81526020015f81526020015f151581526020015f15158152602001603c42610a499190612211565b815260200160016003811115610a6257610a61611b4d565b5b81525060015f820151815f015f6101000a81548173ffffffffffffffffffffffffffffffffffffffff021916908373ffffffffffffffffffffffffffffffffffffffff1602179055506020820151816001015f6101000a81548173ffffffffffffffffffffffffffffffffffffffff021916908373ffffffffffffffffffffffffffffffffffffffff16021790555060408201518160020155606082015181600301556080820151816004015560a0820151816005015560c0820151816006015560e08201518160070155610100820151816008015f6101000a81548160ff0219169083151502179055506101208201518160080160016101000a81548160ff021916908315150217905550610140820151816009015561016082015181600a015f6101000a81548160ff02191690836003811115610ba457610ba3611b4d565b5b02179055509050503373ffffffffffffffffffffffffffffffffffffffff167f306841c3fce8498c2d9b7194b8da4c04d03847394e237b625ce6d029b107f07786604051610bf29190611a15565b60405180910390a250505050505f600c5f6101000a81548160ff02191690831515021790555050565b600181565b61012c81565b655af3107a400081565b60026003811115610c4457610c43611b4d565b5b6001600a015f9054906101000a900460ff166003811115610c6857610c67611b4d565b5b14610ca8576040517f08c379a0000000000000000000000000000000000000000000000000000000008152600401610c9f906122b4565b60405180910390fd5b600160090154421115610cf0576040517f08c379a0000000000000000000000000000000000000000000000000000000008152600401610ce79061231c565b60405180910390fd5b5f8133604051602001610d0492919061239f565b60405160208183030381529060405280519060200120905060015f015f9054906101000a900473ffffffffffffffffffffffffffffffffffffffff1673ffffffffffffffffffffffffffffffffffffffff163373ffffffffffffffffffffffffffffffffffffffff1603610e365760016008015f9054906101000a900460ff1615610dc4576040517f08c379a0000000000000000000000000000000000000000000000000000000008152600401610dbb90612414565b60405180910390fd5b6001600401548114610e0b576040517f08c379a0000000000000000000000000000000000000000000000000000000008152600401610e029061247c565b60405180910390fd5b816001600601819055506001806008015f6101000a81548160ff021916908315150217905550610f8e565b600180015f9054906101000a900473ffffffffffffffffffffffffffffffffffffffff1673ffffffffffffffffffffffffffffffffffffffff163373ffffffffffffffffffffffffffffffffffffffff1603610f5257600160080160019054906101000a900460ff1615610edf576040517f08c379a0000000000000000000000000000000000000000000000000000000008152600401610ed6906124e4565b60405180910390fd5b6001600501548114610f26576040517f08c379a0000000000000000000000000000000000000000000000000000000008152600401610f1d9061254c565b60405180910390fd5b8160016007018190555060018060080160016101000a81548160ff021916908315150217905550610f8d565b6040517f08c379a0000000000000000000000000000000000000000000000000000000008152600401610f84906125b4565b60405180910390fd5b5b3373ffffffffffffffffffffffffffffffffffffffff167f7f575127c1586ba0f152f38011db6fffa6a8de5f0404b0dbd779df18fc00cb5f60405160405180910390a260016008015f9054906101000a900460ff168015610ffe5750600160080160019054906101000a900460ff165b156110395760036001600a015f6101000a81548160ff0219169083600381111561102b5761102a611b4d565b5b02179055506110386118d3565b5b5050565b600881565b600c5f9054906101000a900460ff1615611091576040517f08c379a000000000000000000000000000000000000000000000000000000000815260040161108890611d46565b60405180910390fd5b6001600c5f6101000a81548160ff021916908315150217905550600160038111156110bf576110be611b4d565b5b6001600a015f9054906101000a900460ff1660038111156110e3576110e2611b4d565b5b14611123576040517f08c379a000000000000000000000000000000000000000000000000000000000815260040161111a9061261c565b60405180910390fd5b60015f015f9054906101000a900473ffffffffffffffffffffffffffffffffffffffff1673ffffffffffffffffffffffffffffffffffffffff163373ffffffffffffffffffffffffffffffffffffffff160361117d575f80fd5b6001600901544211156111c5576040517f08c379a00000000000000000000000000000000000000000000000000000000081526004016111bc90612684565b60405180910390fd5b5f34905060016002015481146111d9575f80fd5b5f805f9054906101000a900473ffffffffffffffffffffffffffffffffffffffff1673ffffffffffffffffffffffffffffffffffffffff163460405161121e9061210f565b5f6040518083038185875af1925050503d805f8114611258576040519150601f19603f3d011682016040523d82523d5f602084013e61125d565b606091505b50509050806112a1576040517f08c379a000000000000000000000000000000000000000000000000000000000815260040161129890612193565b60405180910390fd5b33600180015f6101000a81548173ffffffffffffffffffffffffffffffffffffffff021916908373ffffffffffffffffffffffffffffffffffffffff16021790555082600160050181905550600260016003015f82825461130291906126a2565b9250508190555060026001600a015f6101000a81548160ff0219169083600381111561133157611330611b4d565b5b0217905550603c426113439190612211565b6001600901819055503373ffffffffffffffffffffffffffffffffffffffff167fd196f2977fe2b8b63f631a98b5e5967845e4fcf00f48ced5587cafe76122ea9c60405160405180910390a250505f600c5f6101000a81548160ff02191690831515021790555050565b6001805f015f9054906101000a900473ffffffffffffffffffffffffffffffffffffffff1690806001015f9054906101000a900473ffffffffffffffffffffffffffffffffffffffff1690806002015490806003015490806004015490806005015490806006015490806007015490806008015f9054906101000a900460ff16908060080160019054906101000a900460ff169080600901549080600a015f9054906101000a900460ff1690508c565b5f8054906101000a900473ffffffffffffffffffffffffffffffffffffffff1681565b5f60016003015490505f600160020154905061149a611816565b5f8054906101000a900473ffffffffffffffffffffffffffffffffffffffff1673ffffffffffffffffffffffffffffffffffffffff1663a9059cbb84846040518363ffffffff1660e01b81526004016114f49291906126e3565b6020604051808303815f875af1158015611510573d5f803e3d5ffd5b505050506040513d601f19601f820116820180604052508101906115349190612734565b611573576040517f08c379a000000000000000000000000000000000000000000000000000000000815260040161156a906127cf565b60405180910390fd5b7fe3f9f622b1620a6aafcb02a18933177b490fbf75a0378da4dd982965211e6c1083826040516115a49291906126e3565b60405180910390a1505050565b5f60016003015490505f60646008836115ca91906126a2565b6115d4919061281a565b90505f8060806115e26119c2565b901c905060016064826115f5919061284a565b101561161857606461012c8561160b91906126a2565b611615919061281a565b91505b5f82848661162691906121de565b6116309190612211565b90505f805f9054906101000a900473ffffffffffffffffffffffffffffffffffffffff1673ffffffffffffffffffffffffffffffffffffffff166370a08231306040518263ffffffff1660e01b815260040161168c919061208a565b602060405180830381865afa1580156116a7573d5f803e3d5ffd5b505050506040513d601f19601f820116820180604052508101906116cb91906120b7565b90508082116116da57816116dc565b805b91506116e6611816565b5f8054906101000a900473ffffffffffffffffffffffffffffffffffffffff1673ffffffffffffffffffffffffffffffffffffffff1663a9059cbb88846040518363ffffffff1660e01b81526004016117409291906126e3565b6020604051808303815f875af115801561175c573d5f803e3d5ffd5b505050506040513d601f19601f820116820180604052508101906117809190612734565b6117bf576040517f08c379a00000000000000000000000000000000000000000000000000000000081526004016117b6906128ea565b60405180910390fd5b8673ffffffffffffffffffffffffffffffffffffffff167ff36414f0b9d7efca176868714d90af034cedbc16fdbd15ac94d6a64f3b8d66bf836040516118059190611a15565b60405180910390a250505050505050565b60015f8082015f6101000a81549073ffffffffffffffffffffffffffffffffffffffff0219169055600182015f6101000a81549073ffffffffffffffffffffffffffffffffffffffff0219169055600282015f9055600382015f9055600482015f9055600582015f9055600682015f9055600782015f9055600882015f6101000a81549060ff02191690556008820160016101000a81549060ff0219169055600982015f9055600a82015f6101000a81549060ff02191690555050565b5f6118dc6119c2565b90505f60016006836118ee919061284a565b6118f89190612211565b90505f6003826fffffffffffffffffffffffffffffffff16111561193f57600180015f9054906101000a900473ffffffffffffffffffffffffffffffffffffffff16611964565b60015f015f9054906101000a900473ffffffffffffffffffffffffffffffffffffffff165b90508073ffffffffffffffffffffffffffffffffffffffff167f31bdd2b90173dc8ce399c5df5a1091b92c52ea32cb0b5d634bcd0a131871a97c836040516119ac9190612932565b60405180910390a26119bd816115b1565b505050565b5f6001600601546001600701546040516020016119e092919061294b565b604051602081830303815290604052805190602001205f1c905090565b5f819050919050565b611a0f816119fd565b82525050565b5f602082019050611a285f830184611a06565b92915050565b5f80fd5b5f819050919050565b611a4481611a32565b8114611a4e575f80fd5b50565b5f81359050611a5f81611a3b565b92915050565b5f60208284031215611a7a57611a79611a2e565b5b5f611a8784828501611a51565b91505092915050565b611a99816119fd565b8114611aa3575f80fd5b50565b5f81359050611ab481611a90565b92915050565b5f60208284031215611acf57611ace611a2e565b5b5f611adc84828501611aa6565b91505092915050565b5f73ffffffffffffffffffffffffffffffffffffffff82169050919050565b5f611b0e82611ae5565b9050919050565b611b1e81611b04565b82525050565b611b2d81611a32565b82525050565b5f8115159050919050565b611b4781611b33565b82525050565b7f4e487b71000000000000000000000000000000000000000000000000000000005f52602160045260245ffd5b60048110611b8b57611b8a611b4d565b5b50565b5f819050611b9b82611b7a565b919050565b5f611baa82611b8e565b9050919050565b611bba81611ba0565b82525050565b5f61018082019050611bd45f83018f611b15565b611be1602083018e611b15565b611bee604083018d611a06565b611bfb606083018c611a06565b611c08608083018b611b24565b611c1560a083018a611b24565b611c2260c0830189611a06565b611c2f60e0830188611a06565b611c3d610100830187611b3e565b611c4b610120830186611b3e565b611c59610140830185611a06565b611c67610160830184611bb1565b9d9c50505050505050505050505050565b5f819050919050565b5f611c9b611c96611c9184611ae5565b611c78565b611ae5565b9050919050565b5f611cac82611c81565b9050919050565b5f611cbd82611ca2565b9050919050565b611ccd81611cb3565b82525050565b5f602082019050611ce65f830184611cc4565b92915050565b5f82825260208201905092915050565b7f5265656e7472616e6379477561726400000000000000000000000000000000005f82015250565b5f611d30600f83611cec565b9150611d3b82611cfc565b602082019050919050565b5f6020820190508181035f830152611d5d81611d24565b9050919050565b7f5468652047616d6520686173204e6f74205965742054696d65644f75740000005f82015250565b5f611d98601d83611cec565b9150611da382611d64565b602082019050919050565b5f6020820190508181035f830152611dc581611d8c565b9050919050565b7f4f6e6c792047616d652043726561746f722063616e20726566756e64000000005f82015250565b5f611e00601c83611cec565b9150611e0b82611dcc565b602082019050919050565b5f6020820190508181035f830152611e2d81611df4565b9050919050565b5f611e3e82611ca2565b9050919050565b611e4e81611e34565b82525050565b7f4e65697468657220506c61796572732052657665616c6564204265666f7265205f8201527f54696d654f757400000000000000000000000000000000000000000000000000602082015250565b5f611eae602783611cec565b9150611eb982611e54565b604082019050919050565b5f608082019050611ed75f830186611e45565b611ee46020830185611e45565b611ef16040830184611a06565b8181036060830152611f0281611ea2565b9050949350505050565b7f4e6f2054696d654f757420436f6e646974696f6e0000000000000000000000005f82015250565b5f611f40601483611cec565b9150611f4b82611f0c565b602082019050919050565b5f6020820190508181035f830152611f6d81611f34565b9050919050565b7f47616d652069732043757272656e746c792052756e6e696e67000000000000005f82015250565b5f611fa8601983611cec565b9150611fb382611f74565b602082019050919050565b5f6020820190508181035f830152611fd581611f9c565b9050919050565b7f4265742073686f756c64206265206265747765656e20302e3030303120616e645f8201527f20302e3031204574686572000000000000000000000000000000000000000000602082015250565b5f612036602b83611cec565b915061204182611fdc565b604082019050919050565b5f6020820190508181035f8301526120638161202a565b9050919050565b5f61207482611ae5565b9050919050565b6120848161206a565b82525050565b5f60208201905061209d5f83018461207b565b92915050565b5f815190506120b181611a90565b92915050565b5f602082840312156120cc576120cb611a2e565b5b5f6120d9848285016120a3565b91505092915050565b5f81905092915050565b50565b5f6120fa5f836120e2565b9150612105826120ec565b5f82019050919050565b5f612119826120ef565b9150819050919050565b7f4661696c656420746f20436f6e766572742045746865722042657420746f20545f8201527f6f6b656e73000000000000000000000000000000000000000000000000000000602082015250565b5f61217d602583611cec565b915061218882612123565b604082019050919050565b5f6020820190508181035f8301526121aa81612171565b9050919050565b7f4e487b71000000000000000000000000000000000000000000000000000000005f52601160045260245ffd5b5f6121e8826119fd565b91506121f3836119fd565b925082820390508181111561220b5761220a6121b1565b5b92915050565b5f61221b826119fd565b9150612226836119fd565b925082820190508082111561223e5761223d6121b1565b5b92915050565b7f47616d6520686173206e6f7420726561636865642053656372657420526576655f8201527f616c205068617365000000000000000000000000000000000000000000000000602082015250565b5f61229e602883611cec565b91506122a982612244565b604082019050919050565b5f6020820190508181035f8301526122cb81612292565b9050919050565b7f5365637265742052657665616c206861732054696d6d6564204f7574000000005f82015250565b5f612306601c83611cec565b9150612311826122d2565b602082019050919050565b5f6020820190508181035f830152612333816122fa565b9050919050565b5f819050919050565b61235461234f826119fd565b61233a565b82525050565b5f8160601b9050919050565b5f6123708261235a565b9050919050565b5f61238182612366565b9050919050565b6123996123948261206a565b612377565b82525050565b5f6123aa8285612343565b6020820191506123ba8284612388565b6014820191508190509392505050565b7f506c61796572204120416c72656164792072657665616c6564000000000000005f82015250565b5f6123fe601983611cec565b9150612409826123ca565b602082019050919050565b5f6020820190508181035f83015261242b816123f2565b9050919050565b7f506c61796572204127732052657665616c20697320496e76616c6964000000005f82015250565b5f612466601c83611cec565b915061247182612432565b602082019050919050565b5f6020820190508181035f8301526124938161245a565b9050919050565b7f506c61796572204220416c72656164792072657665616c6564000000000000005f82015250565b5f6124ce601983611cec565b91506124d98261249a565b602082019050919050565b5f6020820190508181035f8301526124fb816124c2565b9050919050565b7f506c61796572204227732052657665616c20697320496e76616c6964000000005f82015250565b5f612536601c83611cec565b915061254182612502565b602082019050919050565b5f6020820190508181035f8301526125638161252a565b9050919050565b7f596f7520617265204e6f7420412056616c696420506c617965720000000000005f82015250565b5f61259e601a83611cec565b91506125a98261256a565b602082019050919050565b5f6020820190508181035f8301526125cb81612592565b9050919050565b7f47616d65206973206e6f74204a6f696e6e61626c6500000000000000000000005f82015250565b5f612606601583611cec565b9150612611826125d2565b602082019050919050565b5f6020820190508181035f830152612633816125fa565b9050919050565b7f47616d65204a6f696e6e696e67206861732054696d6564204f757400000000005f82015250565b5f61266e601b83611cec565b91506126798261263a565b602082019050919050565b5f6020820190508181035f83015261269b81612662565b9050919050565b5f6126ac826119fd565b91506126b7836119fd565b92508282026126c5816119fd565b915082820484148315176126dc576126db6121b1565b5b5092915050565b5f6040820190506126f65f83018561207b565b6127036020830184611a06565b9392505050565b61271381611b33565b811461271d575f80fd5b50565b5f8151905061272e8161270a565b92915050565b5f6020828403121561274957612748611a2e565b5b5f61275684828501612720565b91505092915050565b7f436f6e7472616374204661696c656420746f20526566756e6420546f6b656e205f8201527f746f20506c617965720000000000000000000000000000000000000000000000602082015250565b5f6127b9602983611cec565b91506127c48261275f565b604082019050919050565b5f6020820190508181035f8301526127e6816127ad565b9050919050565b7f4e487b71000000000000000000000000000000000000000000000000000000005f52601260045260245ffd5b5f612824826119fd565b915061282f836119fd565b92508261283f5761283e6127ed565b5b828204905092915050565b5f612854826119fd565b915061285f836119fd565b92508261286f5761286e6127ed565b5b828206905092915050565b7f436f6e7472616374204661696c656420746f205472616e7366657220546f6b655f8201527f6e205072697a6520746f2057696e6e6572000000000000000000000000000000602082015250565b5f6128d4603183611cec565b91506128df8261287a565b604082019050919050565b5f6020820190508181035f830152612901816128c8565b9050919050565b5f6fffffffffffffffffffffffffffffffff82169050919050565b61292c81612908565b82525050565b5f6020820190506129455f830184612923565b92915050565b5f60408201905061295e5f830185611a06565b61296b6020830184611a06565b939250505056fea2646970667358221220483dc3a5c49a8752fc92da7f2986c55aa04ce9bcf5ed39ce88010ae86e30042b64736f6c63430008150033",
  "immutableReferences": {},
  "source": "pragma solidity ^0.8.20;\n\nimport \"./Token.sol\";\n\ninterface TokenInterface {\n    function transfer(address to, uint256 value) external returns (bool);\n    function balanceOf(address account) external view returns (uint256);\n}\n\ncontract Game {\n\n    TokenInterface public token;\n    enum GameState { \n        Idle, \n        WaitingForOpponent, \n        WaitingForReveal, \n        WaitingForSettlement\n        }\n    struct GameRound {\n        address payable PlayerA;\n        address payable PlayerB;\n        uint256 BetInEther;\n        uint256 StakeInToken;\n        bytes32 HashOfSecretA;\n        bytes32 HashOfSecretB;\n        uint256 SecretA;\n        uint256 SecretB;\n        bool RevealedA;\n        bool RevealedB;\n        uint256 Deadline;\n        GameState State;\n    }\n\n    GameRound public game;\n    uint256 public constant minBet = 0.0001 ether;\n    uint256 public constant maxBet = 0.01 ether;\n    uint256 public constant revealTimeout = 1 minutes;\n    uint256 public constant joinTimeout = 1 minutes;\n    uint256 public constant transactionFee = 8;      // 8%\n    uint256 public constant bonusFrequency = 1;    // 1% chance\n    uint256 public constant bonusPercentage = 300;   // 300% of bet as bonus\n\n    event GameCreated(address indexed playerA, uint256 bet);\n    event GameJoined(address indexed playerB);\n    event SecretRevealed(address indexed player);\n    event GameResult (address indexed winner, uint128 dice);\n    event GameSettled(address indexed winner, uint256 prize);\n    event BetsRefunded (address player, uint256 bet);\n    event BetsConfiscated (address playerA, address playerB, uint256 bet, string reason);\n\n    bool private locked;\n    modifier nonReentrant() {\n        require(!locked, \"ReentrancyGuard\");\n        locked = true;\n        _;\n        locked = false;\n    }\n    \n    constructor(address tokenAddress) payable {\n        token = TokenInterface(tokenAddress);\n        require(msg.value > 1 ether, \"Must Prefund to Obtain Sufficient Tokens\");\n        (bool success, ) = tokenAddress.call{value: msg.value}(\"\");\n        require(success, \"Token Prefunding Failed\");\n    }\n\n    function createGame(bytes32 hashCommit) external payable nonReentrant{\n        uint256 placedBet = msg.value;\n        require(game.State == GameState.Idle, \"Game is Currently Running\");\n        require(placedBet >= minBet && placedBet <= maxBet, \"Bet should be between 0.0001 and 0.01 Ether\");\n        \n        uint256 contractTokenBalance = token.balanceOf(address(this));\n        (bool success, ) = address(token).call{value: placedBet}(\"\");\n        require(success, \"Failed to Convert Ether Bet to Tokens\");\n        uint256 newTokenBalance = token.balanceOf(address(this));\n        uint256 tokenBet = newTokenBalance - contractTokenBalance;\n\n        game = GameRound({\n            PlayerA: payable(msg.sender),\n            PlayerB: payable(address(0)),\n            BetInEther: placedBet,\n            StakeInToken: tokenBet,\n            HashOfSecretA: hashCommit,\n            HashOfSecretB: 0,\n            SecretA: 0,\n            SecretB: 0,\n            RevealedA: false,\n            RevealedB: false,\n            Deadline: block.timestamp + joinTimeout,\n            State: GameState.WaitingForOpponent\n        });\n        emit GameCreated(msg.sender, placedBet);\n    }\n\n    function joinGame(bytes32 hashCommit) external payable nonReentrant{\n        require(game.State == GameState.WaitingForOpponent, \"Game is not Joinnable\");\n        require(msg.sender != game.PlayerA);\n        require(block.timestamp <= game.Deadline, \"Game Joinning has Timed Out\");\n        uint256 followedBet = msg.value;\n        require(followedBet == game.BetInEther);\n        (bool success, ) = address(token).call{value: msg.value}(\"\");\n        require(success, \"Failed to Convert Ether Bet to Tokens\");\n\n        game.PlayerB = payable(msg.sender);\n        game.HashOfSecretB = hashCommit;\n        game.StakeInToken *=2;\n        game.State = GameState.WaitingForReveal;\n        game.Deadline = block.timestamp + revealTimeout;\n        emit GameJoined(msg.sender);\n    }\n\n    function revealSecret(uint256 secret) external {\n        require(game.State == GameState.WaitingForReveal, \"Game has not reached Secret Reveal Phase\");\n        require(block.timestamp <= game.Deadline, \"Secret Reveal has Timmed Out\");\n        bytes32 hash = keccak256(\n            abi.encodePacked(secret, msg.sender)\n        );\n\n        if (msg.sender == game.PlayerA) {\n            require(!game.RevealedA, \"Player A Already revealed\");\n            require(hash == game.HashOfSecretA, \"Player A's Reveal is Invalid\");\n            game.SecretA = secret;\n            game.RevealedA = true;\n        } \n        else if (msg.sender == game.PlayerB) {\n            require(!game.RevealedB, \"Player B Already revealed\");\n            require(hash == game.HashOfSecretB, \"Player B's Reveal is Invalid\");\n            game.SecretB = secret;\n            game.RevealedB = true;\n        } \n        else {\n            revert(\"You are Not A Valid Player\");\n        }\n        emit SecretRevealed(msg.sender);\n\n        if (game.RevealedA && game.RevealedB) {\n            game.State = GameState.WaitingForSettlement;\n            settlement();\n        }\n    }\n\n    function settlement() internal {\n        uint256 randomNumber = computeRandom();\n        uint128 dice = uint128((randomNumber % 6) + 1);\n        address winner = (dice <= 3) ? game.PlayerA : game.PlayerB;\n        emit GameResult (winner, dice);\n        payout(winner);\n    }\n\n    function computeRandom() internal view returns (uint256) {\n        return uint256(\n            keccak256(\n                abi.encode(game.SecretA, game.SecretB)\n            )\n        );\n    }\n\n    function payout(address winner) internal {\n        uint256 totalPot = game.StakeInToken;\n        uint256 fee = (totalPot * transactionFee) / 100;\n    \n        uint256 bonus = 0;\n        uint256 bonusRandomSeed = computeRandom() >> 128;\n        if (bonusRandomSeed % 100 < bonusFrequency) {\n            bonus = (totalPot * bonusPercentage) / 100;\n        }\n        uint256 prize = totalPot - fee + bonus;\n        uint256 reserve = token.balanceOf(address(this));\n        prize = prize > reserve ? reserve : prize;\n        reset();\n        require(token.transfer(winner, prize), \"Contract Failed to Transfer Token Prize to Winner\");\n        emit GameSettled(winner, prize);\n    }\n\n    function refund(address player) internal {\n        uint256 amount = game.StakeInToken;\n        uint256 bet = game.BetInEther;\n        reset();\n        require(token.transfer(player, amount), \"Contract Failed to Refund Token to Player\");\n        emit BetsRefunded(player, bet);\n    }\n\n    function reset() internal {\n        delete game;\n    }\n\n    function claimTimeout() external nonReentrant{\n        require(block.timestamp > game.Deadline, \"The Game has Not Yet TimedOut\");\n\n        if (game.State == GameState.WaitingForOpponent) {\n            require(msg.sender == game.PlayerA, \"Only Game Creator can refund\");\n            refund(game.PlayerA);\n        }\n        else if (game.State == GameState.WaitingForReveal) {\n            if (game.RevealedA && !game.RevealedB) {\n                payout(game.PlayerA);\n            } \n            else if (!game.RevealedA && game.RevealedB) {\n                payout(game.PlayerB);\n            } \n            else {\n                emit BetsConfiscated(game.PlayerA, game.PlayerB, game.BetInEther, \n                \"Neither Players Revealed Before TimeOut\");\n                reset();\n            }\n        }\n        else {\n            revert(\"No TimeOut Condition\");\n        }\n    }\n}\n",
  "sourcePath": "/home/kan/blockchainenv/contracts/Game.sol",
  "compiler": {
    "name": "solc",
    "version": "0.8.21+commit.d9974bed.Emscripten.clang"
  },
  "schemaVersion": "3.4.16",
  "updatedAt": "2026-04-10T11:42:37.438Z",
  "networkType": "ethereum",
  "devdoc": {
    "kind": "dev",
    "methods": {},
    "version": 1
  },
  "userdoc": {
    "kind": "user",
    "methods": {},
    "version": 1
  }
}