{
  "contractName": "Token",
  "abi": [
    {
      "inputs": [
        {
          "internalType": "string",
          "name": "inputTokenName",
          "type": "string"
        },
        {
          "internalType": "string",
          "name": "inputTokenSymbol",
          "type": "string"
        }
      ],
      "stateMutability": "nonpayable",
      "type": "constructor"
    },
    {
      "anonymous": false,
      "inputs": [
        {
          "indexed": true,
          "internalType": "address",
          "name": "to",
          "type": "address"
        },
        {
          "indexed": false,
          "internalType": "uint256",
          "name": "value",
          "type": "uint256"
        }
      ],
      "name": "Mint",
      "type": "event"
    },
    {
      "anonymous": false,
      "inputs": [
        {
          "indexed": true,
          "internalType": "address",
          "name": "from",
          "type": "address"
        },
        {
          "indexed": false,
          "internalType": "uint256",
          "name": "value",
          "type": "uint256"
        }
      ],
      "name": "Sell",
      "type": "event"
    },
    {
      "anonymous": false,
      "inputs": [
        {
          "indexed": true,
          "internalType": "address",
          "name": "from",
          "type": "address"
        },
        {
          "indexed": true,
          "internalType": "address",
          "name": "to",
          "type": "address"
        },
        {
          "indexed": false,
          "internalType": "uint256",
          "name": "value",
          "type": "uint256"
        }
      ],
      "name": "Transfer",
      "type": "event"
    },
    {
      "stateMutability": "payable",
      "type": "fallback",
      "payable": true
    },
    {
      "inputs": [],
      "name": "contractClosed",
      "outputs": [
        {
          "internalType": "bool",
          "name": "",
          "type": "bool"
        }
      ],
      "stateMutability": "view",
      "type": "function",
      "constant": true
    },
    {
      "inputs": [],
      "name": "owner",
      "outputs": [
        {
          "internalType": "address payable",
          "name": "",
          "type": "address"
        }
      ],
      "stateMutability": "view",
      "type": "function",
      "constant": true
    },
    {
      "stateMutability": "payable",
      "type": "receive",
      "payable": true
    },
    {
      "inputs": [],
      "name": "totalSupply",
      "outputs": [
        {
          "internalType": "uint256",
          "name": "",
          "type": "uint256"
        }
      ],
      "stateMutability": "view",
      "type": "function",
      "constant": true
    },
    {
      "inputs": [
        {
          "internalType": "address",
          "name": "account",
          "type": "address"
        }
      ],
      "name": "balanceOf",
      "outputs": [
        {
          "internalType": "uint256",
          "name": "",
          "type": "uint256"
        }
      ],
      "stateMutability": "view",
      "type": "function",
      "constant": true
    },
    {
      "inputs": [],
      "name": "getName",
      "outputs": [
        {
          "internalType": "string",
          "name": "",
          "type": "string"
        }
      ],
      "stateMutability": "view",
      "type": "function",
      "constant": true
    },
    {
      "inputs": [],
      "name": "getSymbol",
      "outputs": [
        {
          "internalType": "string",
          "name": "",
          "type": "string"
        }
      ],
      "stateMutability": "view",
      "type": "function",
      "constant": true
    },
    {
      "inputs": [],
      "name": "getPrice",
      "outputs": [
        {
          "internalType": "uint128",
          "name": "",
          "type": "uint128"
        }
      ],
      "stateMutability": "view",
      "type": "function",
      "constant": true
    },
    {
      "inputs": [
        {
          "internalType": "address",
          "name": "to",
          "type": "address"
        },
        {
          "internalType": "uint256",
          "name": "value",
          "type": "uint256"
        }
      ],
      "name": "transfer",
      "outputs": [
        {
          "internalType": "bool",
          "name": "",
          "type": "bool"
        }
      ],
      "stateMutability": "nonpayable",
      "type": "function"
    },
    {
      "inputs": [
        {
          "internalType": "address",
          "name": "to",
          "type": "address"
        },
        {
          "internalType": "uint256",
          "name": "value",
          "type": "uint256"
        }
      ],
      "name": "mint",
      "outputs": [
        {
          "internalType": "bool",
          "name": "",
          "type": "bool"
        }
      ],
      "stateMutability": "nonpayable",
      "type": "function"
    },
    {
      "inputs": [
        {
          "internalType": "uint256",
          "name": "value",
          "type": "uint256"
        }
      ],
      "name": "sell",
      "outputs": [
        {
          "internalType": "bool",
          "name": "",
          "type": "bool"
        }
      ],
      "stateMutability": "nonpayable",
      "type": "function"
    },
    {
      "inputs": [],
      "name": "close",
      "outputs": [],
      "stateMutability": "nonpayable",
      "type": "function"
    }
  ],
  "bytecode": "0x608060405234801562000010575f80fd5b5060405162001da138038062001da1833981810160405281019062000036919062000260565b335f806101000a81548173ffffffffffffffffffffffffffffffffffffffff021916908373ffffffffffffffffffffffffffffffffffffffff16021790555081600390816200008691906200051a565b5080600490816200009891906200051a565b5061025860055f6101000a8154816fffffffffffffffffffffffffffffffff02191690836fffffffffffffffffffffffffffffffff1602179055505050620005fe565b5f604051905090565b5f80fd5b5f80fd5b5f80fd5b5f80fd5b5f601f19601f8301169050919050565b7f4e487b71000000000000000000000000000000000000000000000000000000005f52604160045260245ffd5b6200013c82620000f4565b810181811067ffffffffffffffff821117156200015e576200015d62000104565b5b80604052505050565b5f62000172620000db565b905062000180828262000131565b919050565b5f67ffffffffffffffff821115620001a257620001a162000104565b5b620001ad82620000f4565b9050602081019050919050565b5f5b83811015620001d9578082015181840152602081019050620001bc565b5f8484015250505050565b5f620001fa620001f48462000185565b62000167565b905082815260208101848484011115620002195762000218620000f0565b5b62000226848285620001ba565b509392505050565b5f82601f830112620002455762000244620000ec565b5b815162000257848260208601620001e4565b91505092915050565b5f8060408385031215620002795762000278620000e4565b5b5f83015167ffffffffffffffff811115620002995762000298620000e8565b5b620002a7858286016200022e565b925050602083015167ffffffffffffffff811115620002cb57620002ca620000e8565b5b620002d9858286016200022e565b9150509250929050565b5f81519050919050565b7f4e487b71000000000000000000000000000000000000000000000000000000005f52602260045260245ffd5b5f60028204905060018216806200033257607f821691505b602082108103620003485762000347620002ed565b5b50919050565b5f819050815f5260205f209050919050565b5f6020601f8301049050919050565b5f82821b905092915050565b5f60088302620003ac7fffffffffffffffffffffffffffffffffffffffffffffffffffffffffffffffff826200036f565b620003b886836200036f565b95508019841693508086168417925050509392505050565b5f819050919050565b5f819050919050565b5f62000402620003fc620003f684620003d0565b620003d9565b620003d0565b9050919050565b5f819050919050565b6200041d83620003e2565b620004356200042c8262000409565b8484546200037b565b825550505050565b5f90565b6200044b6200043d565b6200045881848462000412565b505050565b5b818110156200047f57620004735f8262000441565b6001810190506200045e565b5050565b601f821115620004ce5762000498816200034e565b620004a38462000360565b81016020851015620004b3578190505b620004cb620004c28562000360565b8301826200045d565b50505b505050565b5f82821c905092915050565b5f620004f05f1984600802620004d3565b1980831691505092915050565b5f6200050a8383620004df565b9150826002028217905092915050565b6200052582620002e3565b67ffffffffffffffff81111562000541576200054062000104565b5b6200054d82546200031a565b6200055a82828562000483565b5f60209050601f83116001811462000590575f84156200057b578287015190505b620005878582620004fd565b865550620005f6565b601f198416620005a0866200034e565b5f5b82811015620005c957848901518255600182019150602085019450602081019050620005a2565b86831015620005e95784890151620005e5601f891682620004df565b8355505b6001600288020188555050505b505050505050565b611795806200060c5f395ff3fe60806040526004361061009f575f3560e01c806370a082311161006357806370a08231146102ae5780638da5cb5b146102ea57806398d5fdca14610314578063a9059cbb1461033e578063e4849b321461037a578063f5e1a452146103b657610141565b806315070401146101de57806317d7de7c1461020857806318160ddd1461023257806340c10f191461025c57806343d726d61461029857610141565b36610141575f60149054906101000a900460ff16156100f3576040517f08c379a00000000000000000000000000000000000000000000000000000000081526004016100ea90610f00565b60405180910390fd5b5f3411610135576040517f08c379a000000000000000000000000000000000000000000000000000000000815260040161012c90610f68565b60405180910390fd5b61013f33346103e0565b005b5f60149054906101000a900460ff1615610190576040517f08c379a000000000000000000000000000000000000000000000000000000000815260040161018790610f00565b60405180910390fd5b5f34116101d2576040517f08c379a00000000000000000000000000000000000000000000000000000000081526004016101c990610f68565b60405180910390fd5b6101dc33346103e0565b005b3480156101e9575f80fd5b506101f261054e565b6040516101ff9190611000565b60405180910390f35b348015610213575f80fd5b5061021c6105de565b6040516102299190611000565b60405180910390f35b34801561023d575f80fd5b5061024661066e565b6040516102539190611038565b60405180910390f35b348015610267575f80fd5b50610282600480360381019061027d91906110d9565b610677565b60405161028f9190611131565b60405180910390f35b3480156102a3575f80fd5b506102ac610769565b005b3480156102b9575f80fd5b506102d460048036038101906102cf919061114a565b6108e9565b6040516102e19190611038565b60405180910390f35b3480156102f5575f80fd5b506102fe61092f565b60405161030b9190611195565b60405180910390f35b34801561031f575f80fd5b50610328610952565b60405161033591906111d8565b60405180910390f35b348015610349575f80fd5b50610364600480360381019061035f91906110d9565b610976565b6040516103719190611131565b60405180910390f35b348015610385575f80fd5b506103a0600480360381019061039b91906111f1565b610b13565b6040516103ad9190611131565b60405180910390f35b3480156103c1575f80fd5b506103ca610dd7565b6040516103d79190611131565b60405180910390f35b5f6064606960055f9054906101000a90046fffffffffffffffffffffffffffffffff1661040d9190611249565b61041791906112b2565b6fffffffffffffffffffffffffffffffff1690508082101561046e576040517f08c379a00000000000000000000000000000000000000000000000000000000081526004016104659061132c565b60405180910390fd5b5f818361047b919061134a565b90505f828461048a919061137a565b90506104968583610de9565b5f8114610547575f8573ffffffffffffffffffffffffffffffffffffffff16826040516104c2906113d7565b5f6040518083038185875af1925050503d805f81146104fc576040519150601f19603f3d011682016040523d82523d5f602084013e610501565b606091505b5050905080610545576040517f08c379a000000000000000000000000000000000000000000000000000000000815260040161053c90611435565b60405180910390fd5b505b5050505050565b60606004805461055d90611480565b80601f016020809104026020016040519081016040528092919081815260200182805461058990611480565b80156105d45780601f106105ab576101008083540402835291602001916105d4565b820191905f5260205f20905b8154815290600101906020018083116105b757829003601f168201915b5050505050905090565b6060600380546105ed90611480565b80601f016020809104026020016040519081016040528092919081815260200182805461061990611480565b80156106645780601f1061063b57610100808354040283529160200191610664565b820191905f5260205f20905b81548152906001019060200180831161064757829003601f168201915b5050505050905090565b5f600254905090565b5f805f9054906101000a900473ffffffffffffffffffffffffffffffffffffffff1673ffffffffffffffffffffffffffffffffffffffff163373ffffffffffffffffffffffffffffffffffffffff1614610706576040517f08c379a00000000000000000000000000000000000000000000000000000000081526004016106fd906114fa565b60405180910390fd5b5f60149054906101000a900460ff1615610755576040517f08c379a000000000000000000000000000000000000000000000000000000000815260040161074c90610f00565b60405180910390fd5b61075f8383610de9565b6001905092915050565b5f8054906101000a900473ffffffffffffffffffffffffffffffffffffffff1673ffffffffffffffffffffffffffffffffffffffff163373ffffffffffffffffffffffffffffffffffffffff16146107f6576040517f08c379a00000000000000000000000000000000000000000000000000000000081526004016107ed906114fa565b60405180910390fd5b60015f60146101000a81548160ff0219169083151502179055505f4790505f8111156108e6575f805f9054906101000a900473ffffffffffffffffffffffffffffffffffffffff1673ffffffffffffffffffffffffffffffffffffffff1682604051610861906113d7565b5f6040518083038185875af1925050503d805f811461089b576040519150601f19603f3d011682016040523d82523d5f602084013e6108a0565b606091505b50509050806108e4576040517f08c379a00000000000000000000000000000000000000000000000000000000081526004016108db90611562565b60405180910390fd5b505b50565b5f60015f8373ffffffffffffffffffffffffffffffffffffffff1673ffffffffffffffffffffffffffffffffffffffff1681526020019081526020015f20549050919050565b5f8054906101000a900473ffffffffffffffffffffffffffffffffffffffff1681565b5f60055f9054906101000a90046fffffffffffffffffffffffffffffffff16905090565b5f818060015f3373ffffffffffffffffffffffffffffffffffffffff1673ffffffffffffffffffffffffffffffffffffffff1681526020019081526020015f205410156109f8576040517f08c379a00000000000000000000000000000000000000000000000000000000081526004016109ef906115ca565b60405180910390fd5b5f3390508360015f8373ffffffffffffffffffffffffffffffffffffffff1673ffffffffffffffffffffffffffffffffffffffff1681526020019081526020015f205f828254610a4891906115e8565b925050819055508360015f8773ffffffffffffffffffffffffffffffffffffffff1673ffffffffffffffffffffffffffffffffffffffff1681526020019081526020015f205f828254610a9b919061161b565b925050819055508473ffffffffffffffffffffffffffffffffffffffff168173ffffffffffffffffffffffffffffffffffffffff167fddf252ad1be2c89b69c2b068fc378daa952ba7f163c4a11628f55a4df523b3ef86604051610aff9190611038565b60405180910390a360019250505092915050565b5f818060015f3373ffffffffffffffffffffffffffffffffffffffff1673ffffffffffffffffffffffffffffffffffffffff1681526020019081526020015f20541015610b95576040517f08c379a0000000000000000000000000000000000000000000000000000000008152600401610b8c906115ca565b60405180910390fd5b5f60149054906101000a900460ff1615610be4576040517f08c379a0000000000000000000000000000000000000000000000000000000008152600401610bdb90610f00565b60405180910390fd5b5f60055f9054906101000a90046fffffffffffffffffffffffffffffffff166fffffffffffffffffffffffffffffffff1684610c20919061164e565b905080471015610c65576040517f08c379a0000000000000000000000000000000000000000000000000000000008152600401610c5c906116d9565b60405180910390fd5b5f3390508460015f8373ffffffffffffffffffffffffffffffffffffffff1673ffffffffffffffffffffffffffffffffffffffff1681526020019081526020015f205f828254610cb591906115e8565b925050819055508460025f828254610ccd91906115e8565b925050819055505f8173ffffffffffffffffffffffffffffffffffffffff1683604051610cf9906113d7565b5f6040518083038185875af1925050503d805f8114610d33576040519150601f19603f3d011682016040523d82523d5f602084013e610d38565b606091505b5050905080610d7c576040517f08c379a0000000000000000000000000000000000000000000000000000000008152600401610d7390611741565b60405180910390fd5b8173ffffffffffffffffffffffffffffffffffffffff167f5e5e995ce3133561afceaa51a9a154d5db228cd7525d34df5185582c18d3df0987604051610dc29190611038565b60405180910390a26001945050505050919050565b5f60149054906101000a900460ff1681565b8060015f8473ffffffffffffffffffffffffffffffffffffffff1673ffffffffffffffffffffffffffffffffffffffff1681526020019081526020015f205f828254610e35919061161b565b925050819055508060025f828254610e4d919061161b565b925050819055508173ffffffffffffffffffffffffffffffffffffffff167f0f6798a560793a54c3bcfe86a93cde1e73087d944c0ea20544137d412139688582604051610e9a9190611038565b60405180910390a25050565b5f82825260208201905092915050565b7f436f6e747261637420636c6f73656400000000000000000000000000000000005f82015250565b5f610eea600f83610ea6565b9150610ef582610eb6565b602082019050919050565b5f6020820190508181035f830152610f1781610ede565b9050919050565b7f4e6f2045746865722073656e74000000000000000000000000000000000000005f82015250565b5f610f52600d83610ea6565b9150610f5d82610f1e565b602082019050919050565b5f6020820190508181035f830152610f7f81610f46565b9050919050565b5f81519050919050565b5f5b83811015610fad578082015181840152602081019050610f92565b5f8484015250505050565b5f601f19601f8301169050919050565b5f610fd282610f86565b610fdc8185610ea6565b9350610fec818560208601610f90565b610ff581610fb8565b840191505092915050565b5f6020820190508181035f8301526110188184610fc8565b905092915050565b5f819050919050565b61103281611020565b82525050565b5f60208201905061104b5f830184611029565b92915050565b5f80fd5b5f73ffffffffffffffffffffffffffffffffffffffff82169050919050565b5f61107e82611055565b9050919050565b61108e81611074565b8114611098575f80fd5b50565b5f813590506110a981611085565b92915050565b6110b881611020565b81146110c2575f80fd5b50565b5f813590506110d3816110af565b92915050565b5f80604083850312156110ef576110ee611051565b5b5f6110fc8582860161109b565b925050602061110d858286016110c5565b9150509250929050565b5f8115159050919050565b61112b81611117565b82525050565b5f6020820190506111445f830184611122565b92915050565b5f6020828403121561115f5761115e611051565b5b5f61116c8482850161109b565b91505092915050565b5f61117f82611055565b9050919050565b61118f81611175565b82525050565b5f6020820190506111a85f830184611186565b92915050565b5f6fffffffffffffffffffffffffffffffff82169050919050565b6111d2816111ae565b82525050565b5f6020820190506111eb5f8301846111c9565b92915050565b5f6020828403121561120657611205611051565b5b5f611213848285016110c5565b91505092915050565b7f4e487b71000000000000000000000000000000000000000000000000000000005f52601160045260245ffd5b5f611253826111ae565b915061125e836111ae565b925082820261126c816111ae565b915080821461127e5761127d61121c565b5b5092915050565b7f4e487b71000000000000000000000000000000000000000000000000000000005f52601260045260245ffd5b5f6112bc826111ae565b91506112c7836111ae565b9250826112d7576112d6611285565b5b828204905092915050565b7f4e6f7420656e6f756768204574686572000000000000000000000000000000005f82015250565b5f611316601083610ea6565b9150611321826112e2565b602082019050919050565b5f6020820190508181035f8301526113438161130a565b9050919050565b5f61135482611020565b915061135f83611020565b92508261136f5761136e611285565b5b828204905092915050565b5f61138482611020565b915061138f83611020565b92508261139f5761139e611285565b5b828206905092915050565b5f81905092915050565b50565b5f6113c25f836113aa565b91506113cd826113b4565b5f82019050919050565b5f6113e1826113b7565b9150819050919050565b7f526566756e64206661696c6564000000000000000000000000000000000000005f82015250565b5f61141f600d83610ea6565b915061142a826113eb565b602082019050919050565b5f6020820190508181035f83015261144c81611413565b9050919050565b7f4e487b71000000000000000000000000000000000000000000000000000000005f52602260045260245ffd5b5f600282049050600182168061149757607f821691505b6020821081036114aa576114a9611453565b5b50919050565b7f4f6e6c7920436f6e7472616374204f776e65722043616e2043616c6c000000005f82015250565b5f6114e4601c83610ea6565b91506114ef826114b0565b602082019050919050565b5f6020820190508181035f830152611511816114d8565b9050919050565b7f5769746864726177616c206661696c65640000000000000000000000000000005f82015250565b5f61154c601183610ea6565b915061155782611518565b602082019050919050565b5f6020820190508181035f83015261157981611540565b9050919050565b7f55736572204f7574206f6620546f6b656e7300000000000000000000000000005f82015250565b5f6115b4601283610ea6565b91506115bf82611580565b602082019050919050565b5f6020820190508181035f8301526115e1816115a8565b9050919050565b5f6115f282611020565b91506115fd83611020565b92508282039050818111156116155761161461121c565b5b92915050565b5f61162582611020565b915061163083611020565b92508282019050808211156116485761164761121c565b5b92915050565b5f61165882611020565b915061166383611020565b925082820261167181611020565b915082820484148315176116885761168761121c565b5b5092915050565b7f436f6e7472616374204f7574206f6620457468657200000000000000000000005f82015250565b5f6116c3601583610ea6565b91506116ce8261168f565b602082019050919050565b5f6020820190508181035f8301526116f0816116b7565b9050919050565b7f5472616e73666572204661696c656400000000000000000000000000000000005f82015250565b5f61172b600f83610ea6565b9150611736826116f7565b602082019050919050565b5f6020820190508181035f8301526117588161171f565b905091905056fea2646970667358221220d492834aca3af356f739aa2456ca142a9caad16483fd42c5373b0936fbc3233564736f6c63430008150033",
  "immutableReferences": {},
  "source": "pragma solidity ^0.8.20;\n\ncontract Token {\n\n    address payable public owner;\n    bool public contractClosed;\n\n    mapping(address => uint256) internal balanceDict;\n    uint256 internal tokenTotal;\n\n    string internal tokenName;\n    string internal tokenSymbol;\n    uint128 internal tokenPrice;\n\n    event Transfer(address indexed from, address indexed to, uint256 value);\n    event Mint(address indexed to, uint256 value);\n    event Sell(address indexed from, uint256 value);\n\n    constructor(string memory inputTokenName, string memory inputTokenSymbol) {\n        owner = payable(msg.sender);\n        tokenName = inputTokenName;\n        tokenSymbol = inputTokenSymbol;\n        tokenPrice = 600; // 600 wei per token\n    }\n\n    function totalSupply() public view returns (uint256) {\n        return tokenTotal;\n    }\n    function balanceOf(address account) public view returns (uint256) {\n        return balanceDict[account];\n    }\n    function getName() public view returns (string memory) {\n        return tokenName;\n    }\n    function getSymbol() public view returns (string memory) {\n        return tokenSymbol;\n    }\n    function getPrice() public view returns (uint128) {\n        return tokenPrice;\n    }\n\n    modifier onlyOwner() {\n    require(msg.sender == owner, \"Only Contract Owner Can Call\");\n    _;\n    }\n    modifier hasEnoughTokens(uint256 value) {\n    require(balanceDict[msg.sender] >= value, \"User Out of Tokens\");\n    _;\n    }\n    modifier notClosed() {\n        require(!contractClosed, \"Contract closed\");\n        _;\n    }\n    \n    function transfer(address to, uint256 value) \n    public hasEnoughTokens(value) returns (bool) {\n        address sender = msg.sender; // saves gas\n        balanceDict[sender] -= value;\n        balanceDict[to] += value;\n        emit Transfer(sender, to, value);\n        return true;\n    }\n\n    function mint_internal (address to, uint256 value) \n    internal {\n        balanceDict[to] += value;\n        tokenTotal += value;\n        emit Mint(to, value);\n    }\n    \n    function mint(address to, uint256 value) \n    external onlyOwner notClosed returns (bool) {\n        mint_internal(to, value);\n        return true;\n    }\n\n    function sell(uint256 value) \n    public hasEnoughTokens(value) notClosed returns (bool) {\n        uint256 weiToPay = value * tokenPrice;\n        require(address(this).balance >= weiToPay, \"Contract Out of Ether\");\n        address sender = msg.sender;\n        balanceDict[sender] -= value;\n        tokenTotal -= value;\n        (bool success, ) = payable(sender).call{value: weiToPay}(\"\");\n        require(success, \"Transfer Failed\");\n        emit Sell(sender, value);\n        return true;\n    }\n\n    function buy_internal (address buyer, uint256 weiAmount) \n    internal {\n        uint256 unitPrice = (tokenPrice*105)/100;\n        require(weiAmount >= unitPrice, \"Not enough Ether\");   \n        uint256 tokensToMint = weiAmount / unitPrice;\n        uint256 refund = weiAmount % unitPrice;\n        mint_internal(buyer, tokensToMint);\n        if (refund != 0) {\n            (bool success, ) = payable(buyer).call{value: refund}(\"\");\n            require(success, \"Refund failed\");\n        }\n    }\n\n    function close() external onlyOwner {\n        contractClosed = true;\n        uint256 balance = address(this).balance;\n        if (balance > 0) {\n            (bool success, ) = owner.call{value: balance}(\"\");\n            require(success, \"Withdrawal failed\");\n        }\n    }\n\n    receive() external payable notClosed {\n        require(msg.value > 0, \"No Ether sent\");\n        buy_internal(msg.sender, msg.value);\n    }\n    \n    fallback() external payable notClosed {\n        require(msg.value > 0, \"No Ether sent\");\n        buy_internal(msg.sender, msg.value);\n    }\n}",
  "sourcePath": "/home/kan/blockchainenv/contracts/Token.sol",
  "compiler": {
    "name": "solc",
    "version": "0.8.21+commit.d9974bed.Emscripten.clang"
  },
  "schemaVersion": "3.4.16",
  "updatedAt": "2026-04-15T15:26:07.605Z",
  "networkType": "ethereum",
  "devdoc": {
    "kind": "dev",
    "methods": {},
    "version": 1
  },
  "userdoc": {
    "kind": "user",
    "methods": {},
    "version": 1
  }
}